:080000000C945C000C9400005C
:100008000C9400000C9400000C9400000C94000068
:100018000C9400000C9400000C9400000C94000058
:100028000C9400000C9400000C9400000C94000048
:100038000C9400000C9400000C9400000C94000038
:100048000C9400000C9400000C9400000C94000028
:100058000C9400000C9400000C9400000C94000018
:100068000000000000000000000000000000000088
:100078000000000000000000000000000000000078
:100088000000000000000000000000000000000068
:1000980000000000000000000000000001002D4EDC
:1000A800414E00494E46000001000803A40000002C
:1000B800F894EE27EFBBF1E0F5BFE5BF8DE0A2E0D5
:1000C800BB27ED938A95E9F780E098E0A0E0B1E0DE
:1000D800ED930197E9F7E0EBF0E0859195910097B2
:1000E80061F0A591B59105901590BF01F0010590BB
:1000F8000D920197E1F7FB01F0CFE0E0EEBBEFEFE7
:10010800EDBFE8E0EEBFC0E0D3E00C948B00EC97C5
:100118008CE3A0E0B0E0E8E6F0E00E945D0610E0C5
:1001280020E030E040E050E0B6D0E0E0E88BE98B3A
:10013800EA8BEB8B10E01930A8F40E94D303EA0F86
:10014800FB1F0F01E12FF0E03196DE0154960E946B
:100158001306AE0FBF1F0E941D06D0010E94230682
:100168001F5FE9CF32D1E8AFF9AF6AAF7BAFA8AD77
:10017800B9AD8AAD9BAD0E94DA030E945805EC87A1
:10018800FD876E877F8710E01A3090F40E94D303B2
:10019800AE0FBF1F0E941D06A889B9898A899B894D
:1001A8000E940805E88BF98B6A8B7B8B1F5FECCF6D
:1001B800A889B9898A899B890E94DF030E9458050A
:1001C800E887F9876A877B87AC89BD898E899F898B
:1001D800E8ADF9AD6AAD7BAD0E940105A0E0B0E0E5
:1001E80080E090E00E945805EC83FD836E837F8356
:1001F8000E94E403AC85BD858E859F850E94080515
:100208000E94E9030E9408050E9432060E94EE033C
:10021800ABE9B0E0AE1BBF0B9D010E94EE03E556B3
:10022800FF4FAF012030E1E03E071CF02FEF30E038
:1002380004C0332312F420E030E04030E1E05E07F0
:100248001CF04FEF50E004C0552312F440E050E09A
:10025800E0E0E093B300F9010E94F3030E94F80381
:100268000E945805A4EBB0E00E949504EC93E0E0EE
:10027800E7BDFA010E94F303A3ECB5EF88E89FE31A
:100288000E9458050E949504E8BDA2E0B0E00E94D3
:100298003B044BCFFFCF239AEAB1E866EAB9E4B151
:1002A800E87FE4B95798E4B5E36AE4BDE4B5E37AD6
:1002B800E4BDE5B5E360E5BDE5B5E370E5BDE0E0C7
:1002C800E6BDE0936E00E7BDE8BDE0918000E36A1B
:1002D800E0938000E0918000E37AE0938000E09171
:1002E8008100EB60E0938100E0918100EB70E09386
:1002F8008100E0E0E0938200E0938500E0938400D1
:10030800E0936F00E0938700E0938600E093890014
:10031800E0938800E0938B00E0938A00E091B000BE
:10032800E36AE093B000E091B000E37AE093B000B4
:10033800E091B100E460E093B100E091B100E470B5
:10034800E093B100E0E0E093B200E0937000E09346
:10035800B300E093B400E0916100E068E0936100CD
:10036800E0E0E09361000895E9B1E470A0E0B3E053
:100378000E94FD03A1E0B3E0E9B1E0710E94FD0332
:10038800A2E0B3E0E6B1E0720E94FD03A3E0B3E0AF
:10039800E6B1E0710E94FD03A4E0B3E0E6B1E870C5
:1003A8000E94FD03A5E0B3E0E6B1E4700E94FD03FE
:1003B800A6E0B3E0E6B1E2700E94FD03A7E0B3E077
:1003C800E6B1E1700E94FD0308952497E0E0E88318
:1003D800E983EA83EB831A9310E0C6DF10E0A12FCC
:1003E800BB2718972CF5E12FF0E0E050FD4FE08196
:1003F800E030E1F0E12FF0E00E94F303A0E0B0E08C
:1004080080E690E40E9403040E943706A0E0B0E072
:1004180080E490E40E948303A981BA818B819C8146
:100428000E940805E983FA836B837C831F5FD7CF1B
:10043800E981FA816B817C811881259608950E9453
:100448003C067B816A81F981E88177FB770F67FD3C
:100458007160972F9E5781F078F0983190F4AA2711
:10046800BB27882708948795B795A7959A95D1F7BC
:10047800EA23FB23682305C0E8947727EE27FF27A4
:1004880066276F77769508F4606877F9A991B9912E
:1004980089919991EA17FB076807790797FB0895EF
:1004A8000E943C060E942D060E9423020E943206EA
:1004B80019F40E94080407C0E6F70E9408040E9485
:1004C800F8030E940105249608950E943C0624978B
:1004D8001A930A930E940B040E9452062CF0EFEF25
:1004E800FFEF6FE77FEF71C00E9410040E9437068C
:1004F800ADB7BEB711971F930F930E9445040F9194
:100508001F910E9415040E940B04E3EFF4E065E3D9
:100518007FE30E94EB0540F40E941A040E9408053C
:100528000E941504015010400E9410040E94F80314
:100538000E9401057F936F93FF93EF930E9410042D
:100548000E94F8030E940805AF91BF918F919F9177
:100558000E94A6050E9415040E941A040E941C0409
:10056800A6E2B2E485E69FE30E942304EEE4F1E10B
:1005780064E570E40E9403040E940B040E9458057D
:100588007F936F93FF93EF930E942804ADE4B1E14A
:1005980084ED9FE30E940105AF91BF918F919F91D8
:1005A8000E94A6057F936F93FF93EF93F8010E9433
:1005B800F303A8E1B2E781E39FE30E945805AF91F6
:1005C800BF918F919F910E940805198108812A96F1
:1005D80008950E943C0628971A930A930E942D04B6
:1005E800E0E5FCEA6EEA72EC0E94EB0518F40E9462
:1005F800DF0381C0EA85FB856C857D850E944E06F8
:1006080019F40E94DA0377C00E942D04E8E1F2E7AA
:1006180061EB72E40E94EB0509F008F405C0EFEF06
:10062800FFEF6FE77FE767C00E942D04EBE3FAEA6C
:1006380068EB7FE30E945805EA87FB876C877D8714
:100648000E942D042DDF0E9497048F010E942D0423
:100658000E94F3030E940304DF01CB01E0E0F0E015
:1006680060E07FE30E9403040E9415040E941A04BC
:100678000E941C04ADE6BCE48CE69DE30E9458058C
:10068800A6EAB3EE86EE90E40E9408050E940B04E9
:100698000E9458050E9415040E942804A8E2BDE89B
:1006A80086EA91E40E940805EA83FB836C837D83D4
:1006B8000E941004AA81BB818C819D810E9408053B
:1006C800A3EFB4E085EB9FE30E9458057F936F93F7
:1006D800FF93EF930E940B040E9428040E940105D7
:1006E800AF91BF918F919F910E94A6050E943706F6
:1006F800D8010E945604198108812E9608950E94F7
:100708003C0624970E94E4030E944E0619F40E94B6
:10071800DF0343C0A885B9858A859B850E94520658
:1007280084F40E9432040E944E0619F40E94DA03EF
:1007380034C0A885B9858A859B850E94370449DF1E
:100748002CC00E943204DE010E9497040E942306F6
:100758000E9408040E94CE04DF01CB010E943204EB
:100768000E94580619F00E94DF0317C00E94E40394
:100778000E946204DF01CB010E9437042ADFE88768
:10078800F9876A877B87E881E17019F40E94E4039E
:1007980004C00E94E4030E9462042C960895E12F8D
:1007A800F0E0DE0154960E9413060895E0E0F0E0C0
:1007B80060E87FE30895E0E0F0E060E070E008952D
:1007C800E885F9856A857B850895AC81BD818E8130
:1007D8009F8108950E9428060E94950408950E940A
:1007E80018060E94CE040895A0E0B0E080E89FE3D8
:1007F8000895EE23E1E009F4E0E0EC9308950E9407
:1008080041060E94010508950E9428060895AE81B8
:10081800BF81888599850895EE81FF8168857985EE
:100828000895EE83FF83688779870895F5DFEFCF12
:100838000E945805EA83FB836C837D8308950E9498
:100848005805DF01CB010895EA81FB816C817D8128
:100858000895AA85BB858C859D850895EC81FD81C9
:100868006E817F8108950E946902AFDFE8CF1096FC
:1008780039F0A89588E893E10197F1F71197C9F73E
:100888000895E991F9916991799177FB660F771F3E
:1008980088277E57880B7D938C937EE7769567959E
:1008A8006EF00895E991F9916991799177FB660F56
:1008B800771F7A0F769567950EF008953097604008
:1008C800704009F070580895552342F4503811F4D7
:1008D800E0FF04C03196691F791F6BF050E8572775
:1008E80011F45F93CFC05F3F31F0660F000C57954E
:1008F8006795752F08955F9300200AF0CFC0C8C090
:1009080050E8192E1522880F991F9527550F87959E
:1009180050E8072E0522660F771F7527550F679534
:100928000895689401C0E8945F93F2DF703818F076
:100938007F3F08F4A7C056E1571BAAF451955830D9
:100948000EF4593030F0EFEFFFEF6FEF7FE777F9F4
:100958001AC077275523B9F0EE0FFF1F661F771FC0
:100968005A95D1F710C07727583028F0EF2FF62F77
:10097800672F5850F9CF552331F076956795F7953D
:10098800E7955A95D1F700200AF441D15F9108956F
:10099800689401C0E894309760407040B1F000243A
:1009A80026F0772312F4009432D1172E7EE111201D
:1009B80032F07A95EE0FFF1F661F111CF9CFEF2F4B
:1009C800F62F612D5F938ADF5F9108954F93AF01F2
:1009D800FD01DA01AB01BC01CA01402D012C142E26
:1009E8004F910895EA0FFB1F681F0895E095F09551
:1009F8006095EF5FFF4F6F4F08955F9381DF9038E9
:100A080071F150E8152604C05F937ADF903839F108
:100A1800703821F1572F591B2BF112F4D7DFFACF79
:100A2800583118F0AA27BB278827583028F0AB2F51
:100A3800B82F88275850F9CF552329F08695B795B0
:100A4800A7955A95D9F7502D512572F0CBDF38F478
:100A58006795F795E795739513F420C0B7DF3EDFE8
:100A68005F910895D8F7FBCFEA1BFB0B680B51F099
:100A780010F40094BBDF662392F3EE0FFF1F661F8E
:100A88007A95CBF7EE27FF27662777275F9108959A
:100A9800EFEFFFEF6FE77FEF5F910895EFEFFFEF65
:100AA8006FE77FE75F9108955F932ADF703851F30E
:100AB800903841F301240894791F23F41CF3002093
:100AC8003AF3ECCF0F921F932F933F934F93112735
:100AD80022279927689FA0018F9F302D410D591F0C
:100AE8006B9F300D411D591F8E9F27D0BF9F25D06A
:100AF8006A9F23D0BE9F1DD0AF9F1BD0AE9F110D04
:100B0800291F391F491F591FE32FF42F652F522F13
:100B18004F913F912F911F910F9066232AF0550F07
:100B2800EE1FFF1F661F02C073954BF2CDDE5F916B
:100B38000895100D211D391F02C0200D311D491FB8
:100B4800591F08955F93DCDE703821F411200AF4F0
:100B58009FCFA4CF903809F495CF01240894970B20
:100B68001BF4D4F30020F3CF792F1F932F933F93D7
:100B78004F9311241127222733274427552790E222
:100B8800AE17BF078607410730F0AE1BBF0B860BB9
:100B9800410B089401C08894551F221F331F111C54
:100BA800AA1FBB1F881F441F9A9551F7F901612D91
:100BB8004F913F912F911F91662332F0550FEE1FF1
:100BC800FF1F661F7A9543F27FDE5F910895992390
:100BD8009AF0772342F0971748F029F4AE17BF0729
:100BE800860720F031F09894889408959894089492
:100BF80008951894889408957723C2F7971798F35F
:100C0800A9F7EA17FB07680788F399F3ECCFF09583
:100C180060957095E195FF4F6F4F7F4F0895EE0FE8
:100C2800FF1FEE0FFF1F08956F2F660F660B762FBD
:100C38000895ED91FD916D917C9113970895ED9331
:100C4800FD936D937C930895E881F9816A817B8196
:100C58000895A881B9818A819B810895E883F983E1
:100C68006A837B8308957A936A93FA93EA93089543
:100C78009A938A93BA93AA930895182E862F612D72
:100C8800192E972F712D1B2EBF2FF12D1A2EAE2F37
:100C9800E12D0895309760407040089500240A16A9
:100CA8000B06080609060895EA17FB07680779077F
:100CB8000895AC0FBD1F05900D928A95E1F7089530
:00000001FF
